:020000040800F2
:10000000480500209D010008230900081B0900087D
:100010001F0900083F080008E31000080000000066
:10002000000000000000000000000000D10C0008EB
:100030004308000800000000B1090008E90D0008AD
:10004000B7010008B7010008B7010008B7010008B0
:10005000B7010008B7010008B7010008B7010008A0
:10006000B7010008B7010008B7010008B701000890
:10007000B7010008B7010008B7010008B701000880
:10008000B7010008B7010008B7010008B701000870
:10009000B7010008B7010008B7010008B701000860
:1000A000B7010008B7010008B7010008B701000850
:1000B000B7010008B7010008B7010008B701000840
:1000C000B7010008B7010008B7010008B701000830
:1000D000B7010008550E0008B7010008DD0E000842
:1000E000B7010008B7010008B7010008B701000810
:1000F000B7010008B7010008B7010008B701000800
:10010000B7010008B7010008B7010008B7010008EF
:10011000B7010008B7010008B7010008B7010008DF
:10012000B7010008B7010008B7010008B7010008CF
:10013000B7010008B7010008B7010008B7010008BF
:10014000B7010008B7010008B7010008B7010008AF
:10015000B7010008B7010008B7010008B70100089F
:10016000B7010008B7010008B7010008B70100088F
:10017000B7010008B7010008B7010008B70100087F
:10018000B7010008B7010008DFF80CD000F0F8FA5A
:1001900000480047791E00084805002006488047AF
:1001A00006480047FEE7FEE7FEE7FEE7FEE7FEE75C
:1001B000FEE7FEE7FEE7FEE7ED0D00088901000817
:1001C00040EA01039B0703D009E008C9121F08C0D9
:1001D000042AFAD203E011F8013B00F8013B521E59
:1001E000F9D270472DE9FE4F804681EA0300C00F27
:1001F0000C46009021F0004123F00045B8EB0200CE
:10020000A94105D24046214690461C460B4602466F
:1002100023F00040104347D0270DC7F30A00C3F373
:100220000A510290401A019040286BDAC3F3130080
:1002300040F4801B0098924620B10023D2EB030AC1
:1002400063EB0B0B01985946C0F14002504600F099
:1002500072F906460D4650465946019A00F07AF961
:1002600010EB08006141002487EA115284EAE77329
:100270001A4340D0009A62B3019A012A4FEA07520A
:1002800015DC001B61EB02014FF0004202EA07524D
:10029000CDE90042001C41F5801132462B4600F0AA
:1002A000B1F903B0BDE8F08F40462146F9E7001BE5
:1002B00061EB0201001C41F5801300185B4120181E
:1002C000A2F5001747EB030140EAD570B6196D415E
:1002D00011E06D084FEA360645EAC0754FEA07524D
:1002E000001B61EB0201001C41F5801149084FEA37
:1002F00030000019514132462B4603B0BDE8F04FA3
:1003000000F071B90098012240000023D0EB0202F6
:1003100063EBE073009821464FEAE074B8EB00000D
:1003200061EB0401E9E783F000435BE781F0004102
:1003300058E72DE9FE4F81EA030404F0004421F060
:10034000004100944FF0000B23F0004350EA0104F9
:100350005ED052EA03045BD0C3F30A54C1F30A55DA
:100360002C44A4F2F3340194A0FB0254C1F3130112
:1003700041F48011C3F3130343F4801301FB0244DF
:1003800000FB034E840A970A44EA815447EA8357E4
:10039000A4FB076802958D0A05FB07854FEA932C9D
:1003A00004FB0C542705029D4FEA065847EA16370E
:1003B000B5EB08056EEB070C870E920E47EA811726
:1003C00042EA8312A7FB0201B6EB0B0164EB0004C7
:1003D0002B0D43EA0C335E1844EB1C50DA465146B1
:1003E000E7FB0201C5F313044FEA0B3343EA14534E
:1003F0004FEA0432019C43EA0603A4F10C04029480
:10040000009CCDE900B400F0FDF803B0BDE8F08F2A
:1004100000200146F9E700F0004230F000400AD029
:10042000C10D01F56071C0F3160042EA0151C20826
:1004300040071143704700200146704730B5041E45
:1004400071F1000404DB4FF00044404264EB010111
:10045000141E73F1000405DB1C464FF000435242AA
:1004600063EB04038B4208BF824230BD30B5041EEB
:1004700071F1000404DB4FF00044404264EB0101E1
:10048000141E73F1000405DB1C464FF0004352427A
:1004900063EB0403994208BF904230BD01F0004372
:1004A00030B421F0004150EA010206D00A0DA2F555
:1004B0006072C1F31301002A02DC30BC00207047D7
:1004C000440F44EAC104C100E01830BC00EBC25044
:1004D00000F052B82DE9F05F0546002092469B4699
:1004E00088460646814640241BE02846414647464A
:1004F000224600F057F953465A46C01A914110D38C
:1005000011461846224600F016F82D1A67EB01082E
:100510004F4622460120002100F00DF817EB00099C
:100520004E41201EA4F10104DFDC484631462A4634
:100530004346BDE8F09F202A04DB203A00FA02F18E
:10054000002070479140C2F1200320FA03F31943C1
:1005500090407047202A06DBCB17203A41FA02F080
:1005600043EAE07306E041FA02F3D040C2F1200210
:1005700091400843194670470029A8BF7047401CA6
:10058000490008BF20F00100704710B4B0FA80FCA9
:1005900000FA0CF050EA010404BF10BC704749B1E6
:1005A000CCF1200421FA04F411FA0CF118BF012156
:1005B00021430843A3EB0C01CB1D4FEA00614FEA36
:1005C000102042BF002010BC704700EBC350104405
:1005D0000029A4BF10BC7047401C490008BF20F090
:1005E000010010BC704710B5141E73F1000408DA46
:1005F000401C41F1000192185B411A4301D120F0E7
:10060000010010BD2DE9F04D92469B4611B1B1FAA3
:1006100081F202E0B0FA80F220329046FFF78BFFC1
:1006200004460F4640EA0A0041EA0B0153465A4687
:10063000084313D0114653EA010019D0C8F1400213
:10064000504600F0AFF805460E4650465946424621
:10065000FFF771FF084305D0012004E0204639462A
:10066000BDE8F08D0020054346EAE0762C43374391
:100670000A986305E40AA0EB08000022FD0A44EA98
:1006800047540A3002D500200146E9E70105101958
:100690006941DDE9084500196941BDE8F04DA2E76F
:1006A0002DE9F04D81EA030404F0004B21F00045F0
:1006B00014464FF0000A23F0004150EA050220D012
:1006C00054EA01021DD0C5F30A570246C5F31303CD
:1006D000C1F31300C1F30A5640F4801543F48013AC
:1006E000A7EB0608101BD64608F2FD3873EB050091
:1006F00002D308F1010801E092185B41B8F1000F44
:1007000003DA00200146BDE8F08D00204FF480118F
:10071000064684460EE0171B73EB050705D3121B34
:1007200063EB050306434CEA010C49084FEA30002D
:1007300092185B4150EA0107EDD152EA030012D052
:1007400082EA040083EA0501084305D0101BAB418F
:1007500006D20122002306E000224FF0004302E00F
:100760006FF0010253101AEB06004CEB085110EB2E
:100770000A0041EB0B01BDE8F04DFFF734BF00006C
:10078000064C074D06E0E06840F0010394E80700DE
:1007900098471034AC42F6D3FFF7FAFCF822000871
:1007A00018230008202A04DB203A21FA02F0002155
:1007B000704721FA02F3D040C2F120029140084371
:1007C000194670470EB5C10F80EAE0700844CA07A9
:1007D000002140F233438DE80E000A460B46FFF736
:1007E00011FF03B000BD0EB540F23341029100216C
:1007F000CDE900110A460B46FFF704FF03B000BD28
:1008000070B5C1F30A5201F000450024C1F3130191
:1008100040F2FF3341F480119A4201DA002070BDAA
:1008200040F233439A42A2F2334203DC5242FFF7D2
:10083000B9FF00E090402C43F1D0404270BD00BFB2
:10084000FEE77047F0B50A4600210023002400BFF0
:100850003DE0012505FA01F3156805EA03049C4211
:1008600034D105684F000326BE40B54305601579B5
:100870004E00B5400668354305601579012D02D05C
:100880001579022D16D185684F000326BE40B54369
:10089000856055794E00B54086683543856045686A
:1008A00001268E40B5434560456896798E40B6B2C4
:1008B00035434560C5684F000326BE40B543C5605B
:1008C000D5794E00B540C6683543C560491C10292E
:1008D000BFD3F0BDF0B5002300244D07ED0E02FAA2
:1008E00005F3CE1000F1200555F826504E07F70EFF
:1008F0000F26BE40B543CF1000F1200646F8275022
:10090000CE1000F1200555F8265045EA0304CE101C
:1009100000F1200545F82640F0BD00BFFEE700BF0E
:10092000FEE7704770B5002100230F22C4781CB386
:10093000174C246804F4E064C4F5E064C4F30721B0
:10094000C1F10404E3B20A4144789C40E1B28478E6
:10095000144021430C07210E0E4C05786155047894
:1009600004F01F050124AC4005786D11AD0005F1C0
:10097000E025C5F8004109E0047804F01F050124D2
:10098000AC40054D0678761145F8264070BD000054
:100990000CED00E000E400E080E100E002490143EA
:1009A000024A1160704700000000FA050CED00E0FB
:1009B0007047000010B52DED108BF0EE409A19EE47
:1009C000900AFFF728FD41EC180B9FED560B53ECF6
:1009D000102B51EC180BFFF731FD33D89FED530B63
:1009E00053EC102B51EC180BFFF740FD2AD253ECBF
:1009F000182B9FED500B51EC100BFFF79AFC41ECBC
:100A00001D0B9FED4E0B53EC102BFFF7EBFB41EC56
:100A10001C0BB0EE4C0AF0EE6C0A00F099FBB0EE45
:100A200040BAF0EE60BA9FED470B53EC102B51EC3F
:100A30001B0BFFF77EFC41EC1A0BFFF72FFD09EEB5
:100A4000100A6AE09FED390B53EC102B51EC180B98
:100A5000FFF7F4FC5FD89FED3D0B53EC102B51ECEE
:100A6000180BFFF703FD56D853EC182B9FED390BED
:100A700051EC100BFFF75DFC41EC1E0B9FED370BAB
:100A800053EC102BFFF74FFC41EC1D0BB0EE4D0A61
:100A9000F0EE6D0A00F05CFBB0EE40CAF0EE60CA0A
:100AA0009FED300B53EC102B51EC1C0BFFF741FC6E
:100AB00041EC1A0B53EC182B9FED2C0B51EC100B47
:100AC000FFF737FC41EC1E0B9FED2A0B53EC102B6C
:100AD000FFF788FB41EC1D0BB0EE4D0AF0EE6D0AFE
:100AE00000F036FBB0EE40CAF0EE60CA9FED230B7B
:100AF00053EC102B51EC1C0BFFF71BFC41EC1B0BB8
:100B000053EC1A2BFFF76EFB41EC1F0BFFF7C6FCF3
:100B100009EE100A01E09FED1B9AB0EE490ABDEC08
:100B2000108B10BD295C8FC2F5684A4052B81E85F3
:100B3000EBD147409A9999999999B93F52B81E8536
:100B4000EB513B40CFF753E3A55B22400AD7A3709C
:100B50003D8A4340DE9387855AD3EA3F4260E5D021
:100B6000225B184018265305A392EC3FA80018CF2B
:100B7000A0A19F3F1F85EB51B89E26409A99999955
:100B800099D937400000000029B1064A1268024393
:100B9000044B1A6004E0034A12688243014B1A6056
:100BA000704700003038024029B1064A12680243FB
:100BB000044B1A6004E0034A12688243014B1A6036
:100BC000704700004038024029B1064A12680243CB
:100BD000044B1A6004E0034A12688243014B1A6016
:100BE0007047000044380240F0B500210022002484
:100BF000022500260223324F3F6807F00C0121B185
:100C0000042905D0082937D105E02E4F076036E0CA
:100C10002D4F076033E02A4F3F1F3F68C7F38056D0
:100C2000274F3F1F3F6807F03F036EB1264FB7FBCA
:100C3000F3F7DFF88CC0ACF1040CDCF800C0CCF3A7
:100C4000881C07FB0CF40CE01E4FB7FBF3F7DFF832
:100C500070C0ACF1040CDCF800C0CCF3881C07FBBE
:100C60000CF4174F3F1F3F68C7F301477F1C7D00FF
:100C7000B4FBF5F7076002E0124F076000BF00BF4A
:100C80000F4F3F6807F0F0010909104F7A5C0768C1
:100C9000D74047600A4F3F6807F4E051890A0B4F7D
:100CA0007A5C4768D7408760054F3F6807F460412A
:100CB000490B064F7A5C4768D740C760F0BD00001B
:100CC000083802400024F40000127A003A000020A4
:100CD000704700000CB50020019000903448006877
:100CE00040F480303249086000BF3148006800F4A9
:100CF000003000900198401C0190009818B90198AC
:100D0000B0F5A04FF1D12A48006800F4003010B1CE
:100D10000120009001E0002000900098012846D1B9
:100D200023484030006840F080502149403108603D
:100D30002048006840F440401E4908601C480830C4
:100D400000681B49083108600846006840F400400C
:100D500008600846006840F4A05008601648091F63
:100D60000860081F006840F08070091F086000BF1D
:100D70000F48006800F000700028F9D040F20570BC
:100D80000E4908600A480830006820F0030008494E
:100D9000083108600846006840F00200086000BFA3
:100DA00003480830006800F00C000828F8D10CBD9A
:100DB000003802400070004008544007003C0240E8
:100DC000042808D14FF0E021096941F004014FF0F7
:100DD000E022116107E04FF0E021096921F00401F0
:100DE0004FF0E022116170477047000010B51548C0
:100DF000006840F47000134908601348006840F030
:100E000001001149086000200F49083108600E48B0
:100E100000680E4908400C4908600D48091D08602B
:100E2000081F006820F48020091F08600020064980
:100E30000C310860FFF74EFF4FF000600149803928
:100E4000086010BD88ED00E000380240FFFFF6FEAC
:100E50001030002410B540F225511D4800F07FF8F5
:100E600010B31B4800F034F9C4B21A48008800F4EB
:100E70000040C8B91748008800F4804060B10A2CCF
:100E800003D000201349088020E01248008840F475
:100E900000401049088019E00D2C06D10D4800884B
:100EA00040F480400B49088010E00A480088C0F3F5
:100EB0000D0009490C5407480088401C054908806A
:100EC00008460088C72801DD0020088010BD00000A
:100ED00000100140380000207C00002010B540F2D6
:100EE00025510E4800F03BF8B8B10C4800F0F0F87E
:100EF000C1B20B4802880088401C094B1880094881
:100F00008154184600880F2807D10F22054906484A
:100F1000FFF756F900200249088010BD0048004044
:100F200000000020500000205F00002021B18289D5
:100F300042F40052828104E082894DF6FF731A4028
:100F40008281704702460020B1F5007F00D100BFCA
:100F500013880B400BB1012000E00020704770B5F2
:100F60000246002400230025002040F66A16B14204
:100F700000D100BFC1F3421501F01F03012606FA9C
:100F800003F3012D02D19689334006E0022D02D1F0
:100F9000168A334001E0968A33400C12012606FA85
:100FA00004F41688344013B10CB1012000E0002095
:100FB00070BDF0B50346002400260025002040F651
:100FC0006A17B94200D100BF1846C1F3421401F0BC
:100FD0001F06012707FA06F5012C01D10C3004E0A9
:100FE000022C01D1103000E014301AB107682F43F1
:100FF000076002E00768AF430760F0BD2DE9FF47D7
:1010000005460E460024A14600BFA046B08900B1A7
:1010100000BF2C8A24F44054F08804432C82AC890D
:1010200041F20C608443B0883189084371890843D8
:101030000443AC81AC8A24F44074B0890443AC828C
:101040006846FFF7D1FD2048854202D01F488542FF
:1010500002D1DDF80C9001E0DDF80890A88900F4D9
:10106000004040B109EBC90000EB091031684900AC
:10107000B0FBF1F707E009EBC90000EB091031689C
:101080008900B0FBF1F76420B7FBF0F00401200900
:10109000642101FB1078A88900F4004040B132209F
:1010A00000EBC800B0FBF1F000F00700044308E0DB
:1010B000322000EB08106421B0FBF1F000F00F00CB
:1010C00004432C81BDE8FF8700100140001401405B
:1010D00001468888C0F308007047C1F30802828087
:1010E000704700BFFEE70000B0EE401A21EE200A74
:1010F0000248D0ED001A20EE210A704704000020BB
:101100000FB4054B10B503A9044A029800F0AEFCD9
:1011100010BC5DF814FB00005D1E000834000020C8
:1011200003B401984100009850EAC12018BF042080
:101130004A0D18BF40F0010040F2FF72B2EB515F60
:1011400008BF40F00200012808BF052002B0704728
:1011500010B52F499FED2C1B2DED020B84B0059887
:1011600020F000408842DCBF00209DED040B32DD02
:101170002849884209D1049840B94FF0010000F095
:101180006FFC00F03DFC06B010BD05DB9DED040BCF
:1011900000F02AFC06B010BD68469DED040B00F07F
:1011A0003BF810F0030011D0012818D09DED021B70
:1011B0009DED000B02281AD000F04AFA51EC100BFA
:1011C00081F0004106B041EC100B10BD9DED021BFB
:1011D0009DED000B012000F06FFB06B010BD9DEDF2
:1011E000021B9DED000B00F033FA06B010BD01208C
:1011F00000F062FB51EC100B81F0004106B041ECB5
:10120000100B10BD000000000000000000000000F6
:10121000FB21E93F0000F07F2DE9F14F04462DED61
:10122000020B2DED088B8AB09FEDE70B80ED020BD2
:10123000139EE74826F0004585420ADC9DED120B1F
:10124000002084ED000B0AB0BDEC088B03B0BDE8B4
:10125000F08FE0489FEDE0AB9FEDE1BBA84247DD9A
:10126000E14F9FEDE39B9FEDE48B9DED120B53EC63
:101270001A2B51EC100B002E1CDDFFF754F841EC3B
:10128000100BBD4208D053EC1B2B51EC100BFFF799
:101290004AF8C4E900010BE053EC192B51EC100B98
:1012A000FFF741F853EC182BFFF73DF8C4E90001B4
:1012B0000120C8E7FEF796FF41EC100BBD4208D0B5
:1012C00053EC1B2B51EC100BFEF78CFFC4E9000113
:1012D0000BE053EC192B51EC100BFEF783FF53EC92
:1012E000182BFEF77FFFC4E900014FF0FF30AAE79B
:1012F000C348A84279DB9DED120B51EC100B00F0B6
:10130000A1FD41EC180B9FEDC00B53EC102BFFF728
:1013100010F89FEDBF1B53EC112BFEF763FFFFF797
:101320006FFA0746FFF74EFA41EC190B53EC1A2BF4
:10133000FEF7FFFF53EC182BFEF7F8FF41EC180BFC
:1013400053EC1B2B51EC190BFEF7F3FFDFF8C8A28F
:1013500041EC100B4FEA15580125FA4453EC102BC1
:1013600051EC180BFEF7DFFF032DC4E900013DD05F
:10137000C1F30A5005EB4511A8EB00001139814279
:1013800034DA0AEB051BB0EE48AA9BED000BF0EE39
:1013900068AA53EC102B51EC190BFEF7CAFF41EC75
:1013A0001B0B51EC1A0B53EC1B2BFEF7BCFF41EC53
:1013B000180B51EC1A0B53EC182BFEF7B4FF53EC3F
:1013C0001B2BFEF7B0FF9BED020B41EC1A0B53EC0D
:1013D000102B51EC190BFEF7ACFF53EC1A2BFEF758
:1013E000A2FF41EC100B6D1CB8E70EE0002EA8BF69
:1013F0003846BFF628AF94ED000B51EC100B81F08E
:101400000041C4E9000178421DE7C6F3130040F42F
:10141000801EC6F30A50A0F2F530471100F01F05F8
:10142000C5F12000DDF848B0089000200690079034
:101430000520EC467949002D07EB0002794408BFEE
:1014400051F8221009D051F8223001EB8201AB4053
:101450004A68089922FA01F11943A1FB0E26A1FB63
:101460000B131A449A4234BF0123002303EB0608EE
:101470000CEB8003D3E901A60E448E4234BF012158
:10148000002192448A4411B1924502D903E0924569
:1014900001D2012100E00021C3E901A641444CF83A
:1014A0002010011EA0F10100C4DC029800F10050E0
:1014B000850F0298DDE903678000DDF81480FFF7EF
:1014C00081F941EC1A0B3046FFF78DF99FED541B63
:1014D00053EC112BFEF72DFF41EC1B0B3846FFF7A9
:1014E00082F99FED511B53EC112BFEF722FF41ECCB
:1014F000180B4046FFF777F99FED4D1B53EC112B6E
:10150000FEF717FF41EC190B51EC180B53EC192B9C
:10151000FEF768FE53EC1B2BFEF764FE53EC1A2B10
:10152000FEF760FECDE90801002008909DED080B54
:1015300053EC1A2B51EC100BFEF7F5FE53EC1B2B62
:10154000FEF7F1FE53EC182BFEF7EDFE53EC192BD2
:10155000FEF7ECFE9FED381B53EC112BFEF7E9FE76
:101560009FED370B41EC180B53EC102B9DED080B46
:1015700051EC100BFEF7DDFE53EC182BFEF732FE9C
:101580009FED310B41EC180B53EC102B9DED080B2C
:1015900051EC100BFEF7CDFE53EC182BFEF722FE9C
:1015A00041EC100B139810F0004F06D06D4251EC37
:1015B000100B81F0004141EC100B284684ED000B2C
:1015C00041E60000000000000000000000000000F4
:1015D000FB21E93F7CD9024000004054FB21F93F48
:1015E0003163621A61B4D03DFB21F93F0000000075
:1015F0000000601A61B4D03D7370032E8A19A33BBA
:10160000FB2139410000000083C8C96D305FE43F11
:10161000000000000000E03FAA0E0000F80D0000EE
:10162000000000000000103E000000000000103C20
:10163000000000000000103A182D4454FB21F93D31
:101640003326A611460B113C00000054FB21F93D46
:1016500010B52DED040B2DED088B82B0B0EE419A44
:10166000F0EE619A0B9820F000449FED4BABB4F183
:10167000795F11DA9DED0A0B51EC100BFFF7C0F802
:10168000002801BFB0EE4A0AF0EE6A0A02B0BDECD3
:10169000088B04BF04B010BD9DED0A0B53EC102B5A
:1016A00051EC100BFEF745FE41EC180B3C480621AF
:1016B000B0EE480AF0EE680A784400F081F853EC86
:1016C000182B51EC100BFEF734FE9DED0A0B41EC8C
:1016D0001B0B53EC192B51EC100BFEF72AFE41ECBF
:1016E000190B53EC1B2B51EC180BFEF722FE53EC9D
:1016F000192BFEF718FE9FED2C0B41EC190B53EC48
:10170000102B51EC180BFEF714FE41EC100B28487F
:10171000844210DA53EC192B51EC100BFEF703FE48
:1017200053EC1A2BFEF702FE41EC100B02B0BDEC9D
:10173000088B04B010BD1F48A042BCBF9FED1E1B0C
:101740008DED001B06DBA4F5001001900020009039
:101750009DED001B51EC100B53EC112BFEF7E3FD3C
:101760009DED000B41EC180B53EC102B51EC1A0BB8
:10177000FEF7D9FD41EC1A0B53EC192B51EC180B69
:10178000FEF7D1FD53EC1A2BFEF7D0FD41EC100B08
:10179000CCE7000000000000000000000000F03F67
:1017A0001C0B000000000000000000000000E03FF3
:1017B0003333D33F0000E93F000000000000D23F78
:1017C00070B504462DED028B4D1E00EBC500B0EE4A
:1017D000408AF0EE608A90ED000B35F0060017D0DD
:1017E00053EC182B51EC100BFEF7A3FD41EC100B42
:1017F0006D1E04EBC50090ED001B51EC100B53EC7B
:10180000112BFEF7EFFC41EC100B35F00600E7D191
:10181000022D36D0042D1CD0062D1CBFBDEC028B32
:1018200070BD53EC182B51EC100BFEF782FD94EDBC
:101830000A1B53EC112BFEF7D5FC53EC182BFEF7CB
:1018400078FD94ED081B53EC112BFEF7CBFC41EC1B
:10185000100B53EC182B51EC100BFEF76AFD94EDB6
:10186000061B53EC112BFEF7BDFC53EC182BFEF7B7
:1018700060FD94ED040B53EC102BFEF7B3FC41EC30
:10188000100B53EC182B51EC100BFEF752FD94ED9E
:10189000021B53EC112BFEF7A5FC53EC182BFEF7A3
:1018A00048FD94ED001B53EC112BFEF79BFCBDECA7
:1018B000028B41EC100B70BD31B504462DED040BCD
:1018C0002DED0A8BB0EE41BAF0EE61BA0B989DEDAA
:1018D0000A0B20F00040B0F1795F0DDA51EC100BEB
:1018E000FFF71EFC042808BF00F09AF89DED0A0BD4
:1018F000BDEC0A8B05B030BD53EC102B51EC100B36
:10190000FEF717FD41EC180B9DED0A0B53EC182B5D
:1019100051EC100BFEF70DFD41EC190B2C48B0EE0D
:10192000480AF0EE680A05217844FFF749FF9FED69
:101930002ACBB0EE40AAF0EE60AA9CB353EC1C2B6D
:1019400051EC190BFEF7F5FC41EC1C0B53EC1A2B78
:1019500051EC190BFEF7EDFC9FED210B41EC190B3F
:1019600053EC102B51EC1B0BFEF7E3FC53EC192B43
:10197000FEF7D9FC53EC182BFEF7DBFC53EC1B2BCA
:10198000FEF7D1FC53EC1C2BFEF7CDFC9DED0A1BA2
:1019900053EC112BFEF7CAFCBDEC0A8B05B041ECF1
:1019A000100B30BDFFE753EC1A2B51EC180BFEF770
:1019B000C0FC53EC1C2BFEF715FC53EC192BFEF767
:1019C000B8FC9DED0A1B53EC112BFEF70BFCE3E773
:1019D000A409000000000000495555555555C5BFE4
:1019E000000000000000E03F10B553EC102B51EC5C
:1019F000100BFEF7F7FB41EC100B10BD00000000D0
:101A00009FED050B10B553EC102B51EC100BFEF7AE
:101A100047FE41EC100B10BD00000000000000006C
:101A20009FED050B10B553EC102B51EC100BFEF78E
:101A300080FC41EC100B10BD000000000000001005
:101A400002E008C8121F08C1002AFAD17047704787
:101A5000002001E001C1121F002AFBD170470000E5
:101A600001490860704700004C0000202DE9FF4F3D
:101A70008DB09B460F460446002606E025280BD075
:101A80005A460F999047641C761C20780028F5D19F
:101A900011B03046BDE8F08F0025A84601229849D4
:101AA00000E0054314F8013F203B02FA03F008422E
:101AB000F7D120782E2817D114F8010F45F004052E
:101AC0002A280ED06FF02F022078A0F130010929CA
:101AD0000AD808EB880102EB410100EB0108641C05
:101AE000F2E757F8048B641C20786C280DD004DCD6
:101AF0004C2812D06A2811D104E074280DD07A281D
:101B00000CD10AE045F4001507E0617845F4801532
:101B1000814202D1641C05F58015641C2278692A73
:101B200045D008DC002AB3D0582A69D0632A10D0E7
:101B3000642A08D13BE0702A67D0732A13D0752A33
:101B40005CD0782A5CD010465A460F999047761C94
:101B5000D3E017F8040B8DF8000000208DF8010089
:101B6000E946012003E057F8049B4FF0FF30690776
:101B70004FF0000501D40AE06D1C45450DDA8542A1
:101B8000FADB19F805100029F6D106E06D1C854234
:101B9000FCDB19F805100029F8D12E4404E019F8EF
:101BA000010B5A460F9990476D1EF8D2A5E00A2006
:101BB0000021CDE90801C5F3025002280DD001CF64
:101BC000C117031E71F100030DDA4FF0000CD0EBCA
:101BD0000C006CEB01012D2308E0FF1D27F0070727
:101BE000F7E80201EDE72B0504D52B238DF828300B
:101BF00001233BE0EB0739D02023F7E70A2000E080
:101C000010200021CDE9080107E01020002145F057
:101C10000405CDE908014FF00808C5F30250022879
:101C20000FD001CF00214FF0000A2B071FD5702ADB
:101C30000DD0DDE908C38CF0100C5CEA030C0CD06D
:101C400015E0FF1D27F00707F7E80201EBE7402248
:101C50008DF828204FF0010A0BE050EA010306D06E
:101C600030238DF828308DF8292002239A46582AEF
:101C700004D024A20DF120090B9209E026A2F9E775
:101C8000DDE90823FEF726FC0B9B9B5C09F8013D70
:101C900050EA0102F4D1ADEB09002030089068074A
:101CA00001D44FF001080899884502DDA8EB010036
:101CB00000E000208046002506E00AA85A46405D64
:101CC0000F9990476D1C761C5545F6DB04E03020DB
:101CD0005A460F999047761CB8F10001A8F1010807
:101CE000F5DC05E019F8010B5A460F999047761C70
:101CF0000899481E08900029F4DC641CC5E6000021
:101D000009280100303132333435363738396162D1
:101D10006364656600000000303132333435363795
:101D200038394142434445460000000008480079E4
:101D30000749C97840EA012000B200EE900AB8EEE7
:101D4000E01ADFED041A81EE212AB0EE420A704754
:101D50005F0000200000C842094A527A1206084B70
:101D60009B7A42EA0342064BDB7A42EA0322044BA7
:101D70001B7B42EA03016422B1FBF2F070470000D2
:101D80005F00002010B504466FF00400FFF718F85C
:101D9000E11704EB5171C1F3C701074A11701046F6
:101DA000007800EB4001C1EBC0104FF6FF7101EA73
:101DB000C0000249088010BD2E0000203000002025
:101DC00070B504464FF4077094FBF0F0C6B24FF4C0
:101DD000077094FBF0F100FB114085B205E04FF471
:101DE000077000F009F8701EC6B2002EF7D115B1C9
:101DF000284600F001F870BD0146114A12884A4396
:101E00004FF0E0235A6100229A611A46126942F0AB
:101E100001021A6100BF4FF0E022106900F00102D8
:101E20001AB100F48032002AF5D04FF0E022126996
:101E300022F001024FF0E0231A6100229A617047FC
:101E40003000002082B0CDE9000121F00040019077
:101E50009DED000B02B051EC100B704700BF054A1E
:101E6000128802F04002002AF9D0C2B2014B9A80D7
:101E700070470000001001404FF4A060FEF78EFD97
:101E8000A820FFF77FFF4FF4965000F04DF94FF474
:101E9000965000F0C1F800F00DF840F2DC50FFF76A
:101EA0008FFF05E000F05AF84FF47A70FFF788FFD3
:101EB000F8E7000010B52DED048B00F005F9642063
:101EC000FFF77EFF00F018F96420FFF779FFFFF7B6
:101ED0002DFFB0EE408AB0EE480AFEF76BFDF0EE43
:101EE000408AF0EE480AB0EE680AFFF7FDF8B0EE5F
:101EF000409A9FED150A29EE000A1448D0ED000A19
:101F000080EE201AF0EE419ABCEEC80A10EE100ADC
:101F10000F490870BCEEE90A10EE100A4870084636
:101F200001780CA0FFF7ECF80948417809A0FFF709
:101F3000E7F8094880ED008AC0ED018A80ED029A39
:101F4000BDEC048B10BD00000000C842280000203A
:101F50002C000020256420007000002070B52DEDBD
:101F6000028B00F0C9F8FFF7E1FEF0EE408AFFF7C0
:101F7000F3FE0446B4F5AA7F01D3A4F5AA741D4864
:101F8000D0ED020A00EE104AB8EE400A30EEC00A68
:101F9000BCEEC00A10EE105A6420684300EE100A2E
:101FA000B8EE400A1448D0ED000A80EE208ABCEE5C
:101FB000E80A10EE100A11490870BCEEC80A10EECB
:101FC000100A4870084601780DA0FFF799F80B48F1
:101FD00041780BA0FFF794F80848017809A0FFF7B3
:101FE0008FF8064841780AA0FFF78AF8BDEC028B0B
:101FF00070BD000070000020280000202C00002090
:10200000256420003078252E327820200000000042
:102010003078252E3278200010B588B00446012192
:102020000220FEF7B1FD01218804FEF7BDFD072265
:102030000A212348FEF74EFC07220B212048FEF719
:1020400049FC4FF44060069002208DF81C008DF88A
:102050001D0000208DF81E0001208DF81F0006A92C
:102060001748FEF7EFFB02940020ADF80C00ADF826
:102070000E00ADF81000ADF814000C20ADF8120001
:1020800002A91048FEF7BAFF01210E48FEF74EFFE5
:10209000012240F225510B48FEF78BFF27208DF8D7
:1020A000040002208DF8050003208DF806000120B1
:1020B0008DF8070001A8FEF735FC08B010BD000040
:1020C000000402400048004010B500240DE008481C
:1020D000015D0848FFF701F800BF40210548FEF701
:1020E00031FF0128F9D1601CC4B2082CEFD310BD18
:1020F000080000200048004010B500240DE008480A
:10210000015D0848FEF7E9FF00BF40210548FEF7E2
:1021100019FF0128F9D1601CC4B2082CEFD310BDFF
:10212000100000200048004010B588B0044601218E
:102130000846FEF729FD01211020FEF745FD072284
:1021400009212248FEF7C6FB07220A211F48FEF795
:10215000C1FB4FF4C060069002208DF81C008DF882
:102160001D0000208DF81E0001208DF81F0006A91B
:102170001648FEF767FB02940020ADF80C00ADF89E
:102180000E00ADF81000ADF814000C20ADF81200F0
:1021900002A90F48FEF732FF01210D48FEF7C6FEE7
:1021A000012240F225510A48FEF703FF25208DF851
:1021B000040003208DF805008DF8060001208DF83D
:1021C000070001A8FEF7AEFB08B010BD00000240FA
:1021D00000100140000000004C5555555555A53FD5
:1021E0007751C1166CC156BF9015CB19A001FA3EAC
:1021F000AD529C804F7E92BEC4B1B4BD9EEE213ED6
:10220000D43888BEE9FAA8BD00004054FB21F93F4C
:102210003163621A61B4D03D0000601A61B4D03DF0
:102220007370032E8A19A33B0000002E8A19A33B6A
:10223000C14920259A837B3900000000000000007E
:102240006E83F9A22915444ED15727FCC0DD34F521
:10225000999562DB4190433CAB6351FE61C5BBDEA7
:102260003A6E24B7E0D24D42EA2E49061C92D109BB
:102270001CEB1DFE3EA729B1F53582E88444BB2E38
:1022800026709CE9417E5FB439D69139F439538385
:102290008B5F849C3B28F9BDFF97F81F0F9805DEE4
:1022A0008B112FEF1F6D0A5ACF7E366DB709CB27E2
:1022B000663F464F2DEA5F9EC7BA27757BF1E5EB77
:1022C000F739073DEA92528AB15FFB6B085D8D1FBB
:1022D000A6F810111111813FD561C119A0012ABFC3
:1022E0007DFEB157E31DC73EEB9C2B8AE6E55ABE47
:1022F0007CD5CF5A3AD9E53D1823000800000020CC
:1023000050000000401A0008682300085000002018
:10231000F8040000501A0008000000006ADE613F67
:10232000000300010004141801030048000505DF44
:102330000110000C00020400000000F3FA0000008D
:102340000040CB430000000000000000000000003F
:10235000000000000000010203040102030406075C
:08236000080900000000000064
:040000050800018965
:00000001FF
